{
  "_format": "hh-sol-artifact-1",
  "contractName": "Voting",
  "sourceName": "contracts/Voting.sol",
  "abi": [
    {
      "anonymous": false,
      "inputs": [
        {
          "indexed": true,
          "internalType": "address",
          "name": "previousOwner",
          "type": "address"
        },
        {
          "indexed": true,
          "internalType": "address",
          "name": "newOwner",
          "type": "address"
        }
      ],
      "name": "OwnershipTransferred",
      "type": "event"
    },
    {
      "anonymous": false,
      "inputs": [
        {
          "indexed": false,
          "internalType": "uint256",
          "name": "proposalId",
          "type": "uint256"
        }
      ],
      "name": "ProposalRegistered",
      "type": "event"
    },
    {
      "anonymous": false,
      "inputs": [
        {
          "indexed": false,
          "internalType": "address",
          "name": "voter",
          "type": "address"
        },
        {
          "indexed": false,
          "internalType": "uint256",
          "name": "proposalId",
          "type": "uint256"
        }
      ],
      "name": "Voted",
      "type": "event"
    },
    {
      "anonymous": false,
      "inputs": [
        {
          "indexed": false,
          "internalType": "address",
          "name": "voterAddress",
          "type": "address"
        }
      ],
      "name": "VoterRegistered",
      "type": "event"
    },
    {
      "anonymous": false,
      "inputs": [
        {
          "indexed": false,
          "internalType": "enum Voting.WorkflowStatus",
          "name": "previousStatus",
          "type": "uint8"
        },
        {
          "indexed": false,
          "internalType": "enum Voting.WorkflowStatus",
          "name": "newStatus",
          "type": "uint8"
        }
      ],
      "name": "WorkflowStatusChange",
      "type": "event"
    },
    {
      "inputs": [],
      "name": "MAX_SECURITY_PROPOSAL",
      "outputs": [
        {
          "internalType": "uint256",
          "name": "",
          "type": "uint256"
        }
      ],
      "stateMutability": "view",
      "type": "function"
    },
    {
      "inputs": [],
      "name": "MAX_STRING_LENGTH",
      "outputs": [
        {
          "internalType": "uint256",
          "name": "",
          "type": "uint256"
        }
      ],
      "stateMutability": "view",
      "type": "function"
    },
    {
      "inputs": [],
      "name": "MIN_STRING_LENGTH",
      "outputs": [
        {
          "internalType": "uint256",
          "name": "",
          "type": "uint256"
        }
      ],
      "stateMutability": "view",
      "type": "function"
    },
    {
      "inputs": [
        {
          "internalType": "string",
          "name": "_desc",
          "type": "string"
        }
      ],
      "name": "addProposal",
      "outputs": [],
      "stateMutability": "nonpayable",
      "type": "function"
    },
    {
      "inputs": [
        {
          "internalType": "address",
          "name": "_addr",
          "type": "address"
        }
      ],
      "name": "addVoter",
      "outputs": [],
      "stateMutability": "nonpayable",
      "type": "function"
    },
    {
      "inputs": [],
      "name": "endProposalsRegistering",
      "outputs": [],
      "stateMutability": "nonpayable",
      "type": "function"
    },
    {
      "inputs": [],
      "name": "endVotingSession",
      "outputs": [],
      "stateMutability": "nonpayable",
      "type": "function"
    },
    {
      "inputs": [
        {
          "internalType": "uint256",
          "name": "_id",
          "type": "uint256"
        }
      ],
      "name": "getOneProposal",
      "outputs": [
        {
          "components": [
            {
              "internalType": "string",
              "name": "description",
              "type": "string"
            },
            {
              "internalType": "uint256",
              "name": "voteCount",
              "type": "uint256"
            },
            {
              "internalType": "bytes32",
              "name": "hash",
              "type": "bytes32"
            }
          ],
          "internalType": "struct Voting.Proposal",
          "name": "",
          "type": "tuple"
        }
      ],
      "stateMutability": "view",
      "type": "function"
    },
    {
      "inputs": [
        {
          "internalType": "address",
          "name": "_addr",
          "type": "address"
        }
      ],
      "name": "getVoter",
      "outputs": [
        {
          "components": [
            {
              "internalType": "bool",
              "name": "isRegistered",
              "type": "bool"
            },
            {
              "internalType": "bool",
              "name": "hasVoted",
              "type": "bool"
            },
            {
              "internalType": "uint256",
              "name": "votedProposalId",
              "type": "uint256"
            }
          ],
          "internalType": "struct Voting.Voter",
          "name": "",
          "type": "tuple"
        }
      ],
      "stateMutability": "view",
      "type": "function"
    },
    {
      "inputs": [],
      "name": "owner",
      "outputs": [
        {
          "internalType": "address",
          "name": "",
          "type": "address"
        }
      ],
      "stateMutability": "view",
      "type": "function"
    },
    {
      "inputs": [],
      "name": "renounceOwnership",
      "outputs": [],
      "stateMutability": "nonpayable",
      "type": "function"
    },
    {
      "inputs": [
        {
          "internalType": "uint256",
          "name": "_id",
          "type": "uint256"
        }
      ],
      "name": "setVote",
      "outputs": [],
      "stateMutability": "nonpayable",
      "type": "function"
    },
    {
      "inputs": [],
      "name": "startProposalsRegistering",
      "outputs": [],
      "stateMutability": "nonpayable",
      "type": "function"
    },
    {
      "inputs": [],
      "name": "startVotingSession",
      "outputs": [],
      "stateMutability": "nonpayable",
      "type": "function"
    },
    {
      "inputs": [
        {
          "internalType": "string",
          "name": "str",
          "type": "string"
        }
      ],
      "name": "strlen",
      "outputs": [
        {
          "internalType": "uint256",
          "name": "",
          "type": "uint256"
        }
      ],
      "stateMutability": "pure",
      "type": "function"
    },
    {
      "inputs": [],
      "name": "tallyVotes",
      "outputs": [],
      "stateMutability": "nonpayable",
      "type": "function"
    },
    {
      "inputs": [
        {
          "internalType": "address",
          "name": "newOwner",
          "type": "address"
        }
      ],
      "name": "transferOwnership",
      "outputs": [],
      "stateMutability": "nonpayable",
      "type": "function"
    },
    {
      "inputs": [],
      "name": "winningProposalID",
      "outputs": [
        {
          "internalType": "uint256",
          "name": "",
          "type": "uint256"
        }
      ],
      "stateMutability": "view",
      "type": "function"
    },
    {
      "inputs": [],
      "name": "workflowStatus",
      "outputs": [
        {
          "internalType": "enum Voting.WorkflowStatus",
          "name": "",
          "type": "uint8"
        }
      ],
      "stateMutability": "view",
      "type": "function"
    }
  ],
  "bytecode": "0x60806040523480156200001157600080fd5b5062000032620000266200003860201b60201c565b6200004060201b60201c565b62000104565b600033905090565b60008060009054906101000a900473ffffffffffffffffffffffffffffffffffffffff169050816000806101000a81548173ffffffffffffffffffffffffffffffffffffffff021916908373ffffffffffffffffffffffffffffffffffffffff1602179055508173ffffffffffffffffffffffffffffffffffffffff168173ffffffffffffffffffffffffffffffffffffffff167f8be0079c531659141344cd1fd0a4f28419497f9722a3daafe3b4186f6b6457e060405160405180910390a35050565b6129b080620001146000396000f3fe608060405234801561001057600080fd5b50600436106101215760003560e01c8063a2788cce116100ad578063c88af42f11610071578063c88af42f1461029a578063d4f50f98146102a4578063ee74c678146102d4578063f2fde38b146102de578063f4ab9adf146102fa57610121565b8063a2788cce1461021a578063a7bfab161461024a578063b761f6a414610254578063bdc0143114610272578063c7038a4e1461029057610121565b8063378a2178116100f4578063378a2178146101ac578063715018a6146101b65780637d14d3ae146101c05780638da5cb5b146101de578063a1edffa2146101fc57610121565b8063230796ae146101265780632fdae3c51461014257806334ccc5ea1461015e578063367bbd781461017c575b600080fd5b610140600480360381019061013b9190611852565b610316565b005b61015c600480360381019061015791906118e4565b61066d565b005b610166610b08565b6040516101739190611940565b60405180910390f35b61019660048036038101906101919190611a9c565b610b0d565b6040516101a39190611940565b60405180910390f35b6101b4610b18565b005b6101be610c07565b005b6101c8610c1b565b6040516101d59190611940565b60405180910390f35b6101e6610c20565b6040516101f39190611b26565b60405180910390f35b610204610c49565b6040516102119190611bb8565b60405180910390f35b610234600480360381019061022f9190611852565b610c5c565b6040516102419190611cd3565b60405180910390f35b610252610dcd565b005b61025c610eb3565b6040516102699190611940565b60405180910390f35b61027a610eb8565b6040516102879190611940565b60405180910390f35b610298610ebe565b005b6102a261104a565b005b6102be60048036038101906102b99190611d21565b61112f565b6040516102cb9190611dab565b60405180910390f35b6102dc611257565b005b6102f860048036038101906102f39190611d21565b61133d565b005b610314600480360381019061030f9190611d21565b6113c0565b005b600460003373ffffffffffffffffffffffffffffffffffffffff1673ffffffffffffffffffffffffffffffffffffffff16815260200190815260200160002060000160009054906101000a900460ff166103a5576040517f08c379a000000000000000000000000000000000000000000000000000000000815260040161039c90611e23565b60405180910390fd5b600360058111156103b9576103b8611b41565b5b600260009054906101000a900460ff1660058111156103db576103da611b41565b5b1461041b576040517f08c379a000000000000000000000000000000000000000000000000000000000815260040161041290611eb5565b60405180910390fd5b60011515600460003373ffffffffffffffffffffffffffffffffffffffff1673ffffffffffffffffffffffffffffffffffffffff16815260200190815260200160002060000160019054906101000a900460ff161515036104b1576040517f08c379a00000000000000000000000000000000000000000000000000000000081526004016104a890611f21565b60405180910390fd5b60038054905081106104f8576040517f08c379a00000000000000000000000000000000000000000000000000000000081526004016104ef90611f8d565b60405180910390fd5b80600460003373ffffffffffffffffffffffffffffffffffffffff1673ffffffffffffffffffffffffffffffffffffffff168152602001908152602001600020600101819055506001600460003373ffffffffffffffffffffffffffffffffffffffff1673ffffffffffffffffffffffffffffffffffffffff16815260200190815260200160002060000160016101000a81548160ff021916908315150217905550600381815481106105ae576105ad611fad565b5b906000526020600020906003020160010160008154809291906105d09061200b565b91905055506003600554815481106105eb576105ea611fad565b5b9060005260206000209060030201600101546003828154811061061157610610611fad565b5b906000526020600020906003020160010154111561063157806005819055505b7f4d99b957a2bc29a30ebd96a7be8e68fe50a3c701db28a91436490b7d53870ca43382604051610662929190612053565b60405180910390a150565b600460003373ffffffffffffffffffffffffffffffffffffffff1673ffffffffffffffffffffffffffffffffffffffff16815260200190815260200160002060000160009054906101000a900460ff166106fc576040517f08c379a00000000000000000000000000000000000000000000000000000000081526004016106f390611e23565b60405180910390fd5b600160058111156107105761070f611b41565b5b600260009054906101000a900460ff16600581111561073257610731611b41565b5b14610772576040517f08c379a0000000000000000000000000000000000000000000000000000000008152600401610769906120c8565b60405180910390fd5b6040516020016107819061210e565b6040516020818303038152906040528051906020012082826040516020016107aa92919061215b565b6040516020818303038152906040528051906020012003610800576040517f08c379a00000000000000000000000000000000000000000000000000000000081526004016107f7906121f1565b60405180910390fd5b601460038054905010610848576040517f08c379a000000000000000000000000000000000000000000000000000000000815260040161083f90612283565b60405180910390fd5b600061089783838080601f016020809104026020016040519081016040528093929190818152602001838380828437600081840152601f19601f82011690508083019250505050505050610b0d565b9050604081106108dc576040517f08c379a00000000000000000000000000000000000000000000000000000000081526004016108d3906122ef565b60405180910390fd5b600a811015610920576040517f08c379a00000000000000000000000000000000000000000000000000000000081526004016109179061235b565b60405180910390fd5b6000838360405160200161093592919061215b565b60405160208183030381529060405280519060200120905060405160200161095c9061210e565b6040516020818303038152906040528051906020012081036109b3576040517f08c379a00000000000000000000000000000000000000000000000000000000081526004016109aa906123ed565b60405180910390fd5b6109bc81611569565b6109fb576040517f08c379a00000000000000000000000000000000000000000000000000000000081526004016109f290612459565b60405180910390fd5b610a0361171c565b84848080601f016020809104026020016040519081016040528093929190818152602001838380828437600081840152601f19601f8201169050808301925050505050505081600001819052508181604001818152505060038190806001815401808255809150506001900390600052602060002090600302016000909190919091506000820151816000019080519060200190610aa2929190611740565b50602082015181600101556040820151816002015550507f92e393e9b54e2f801d3ea4beb0c5e71a21cc34a5d34b77d0fb8a3aa1650dc18f6001600380549050610aec9190612479565b604051610af99190611940565b60405180910390a15050505050565b604081565b600081519050919050565b610b206115d2565b60046005811115610b3457610b33611b41565b5b600260009054906101000a900460ff166005811115610b5657610b55611b41565b5b14610b96576040517f08c379a0000000000000000000000000000000000000000000000000000000008152600401610b8d9061251f565b60405180910390fd5b6005546001819055506005600260006101000a81548160ff02191690836005811115610bc557610bc4611b41565b5b02179055507f0a97a4ee45751e2abf3e4fc8946939630b11b371ea8ae39ccdc3056e98f5cc3f60046005604051610bfd92919061253f565b60405180910390a1565b610c0f6115d2565b610c196000611650565b565b601481565b60008060009054906101000a900473ffffffffffffffffffffffffffffffffffffffff16905090565b600260009054906101000a900460ff1681565b610c6461171c565b600460003373ffffffffffffffffffffffffffffffffffffffff1673ffffffffffffffffffffffffffffffffffffffff16815260200190815260200160002060000160009054906101000a900460ff16610cf3576040517f08c379a0000000000000000000000000000000000000000000000000000000008152600401610cea90611e23565b60405180910390fd5b60038281548110610d0757610d06611fad565b5b9060005260206000209060030201604051806060016040529081600082018054610d3090612597565b80601f0160208091040260200160405190810160405280929190818152602001828054610d5c90612597565b8015610da95780601f10610d7e57610100808354040283529160200191610da9565b820191906000526020600020905b815481529060010190602001808311610d8c57829003601f168201915b50505050508152602001600182015481526020016002820154815250509050919050565b610dd56115d2565b60036005811115610de957610de8611b41565b5b600260009054906101000a900460ff166005811115610e0b57610e0a611b41565b5b14610e4b576040517f08c379a0000000000000000000000000000000000000000000000000000000008152600401610e4290611eb5565b60405180910390fd5b6004600260006101000a81548160ff02191690836005811115610e7157610e70611b41565b5b02179055507f0a97a4ee45751e2abf3e4fc8946939630b11b371ea8ae39ccdc3056e98f5cc3f60036004604051610ea992919061253f565b60405180910390a1565b600a81565b60015481565b610ec66115d2565b60006005811115610eda57610ed9611b41565b5b600260009054906101000a900460ff166005811115610efc57610efb611b41565b5b14610f3c576040517f08c379a0000000000000000000000000000000000000000000000000000000008152600401610f339061263a565b60405180910390fd5b6001600260006101000a81548160ff02191690836005811115610f6257610f61611b41565b5b0217905550610f6f61171c565b6040518060400160405280600781526020017f47454e4553495300000000000000000000000000000000000000000000000000815250816000018190525060038190806001815401808255809150506001900390600052602060002090600302016000909190919091506000820151816000019080519060200190610ff5929190611740565b50602082015181600101556040820151816002015550507f0a97a4ee45751e2abf3e4fc8946939630b11b371ea8ae39ccdc3056e98f5cc3f6000600160405161103f92919061253f565b60405180910390a150565b6110526115d2565b6001600581111561106657611065611b41565b5b600260009054906101000a900460ff16600581111561108857611087611b41565b5b146110c8576040517f08c379a00000000000000000000000000000000000000000000000000000000081526004016110bf906126cc565b60405180910390fd5b60028060006101000a81548160ff021916908360058111156110ed576110ec611b41565b5b02179055507f0a97a4ee45751e2abf3e4fc8946939630b11b371ea8ae39ccdc3056e98f5cc3f6001600260405161112592919061253f565b60405180910390a1565b6111376117c6565b600460003373ffffffffffffffffffffffffffffffffffffffff1673ffffffffffffffffffffffffffffffffffffffff16815260200190815260200160002060000160009054906101000a900460ff166111c6576040517f08c379a00000000000000000000000000000000000000000000000000000000081526004016111bd90611e23565b60405180910390fd5b600460008373ffffffffffffffffffffffffffffffffffffffff1673ffffffffffffffffffffffffffffffffffffffff1681526020019081526020016000206040518060600160405290816000820160009054906101000a900460ff161515151581526020016000820160019054906101000a900460ff161515151581526020016001820154815250509050919050565b61125f6115d2565b6002600581111561127357611272611b41565b5b600260009054906101000a900460ff16600581111561129557611294611b41565b5b146112d5576040517f08c379a00000000000000000000000000000000000000000000000000000000081526004016112cc9061275e565b60405180910390fd5b6003600260006101000a81548160ff021916908360058111156112fb576112fa611b41565b5b02179055507f0a97a4ee45751e2abf3e4fc8946939630b11b371ea8ae39ccdc3056e98f5cc3f6002600360405161133392919061253f565b60405180910390a1565b6113456115d2565b600073ffffffffffffffffffffffffffffffffffffffff168173ffffffffffffffffffffffffffffffffffffffff16036113b4576040517f08c379a00000000000000000000000000000000000000000000000000000000081526004016113ab906127f0565b60405180910390fd5b6113bd81611650565b50565b6113c86115d2565b600060058111156113dc576113db611b41565b5b600260009054906101000a900460ff1660058111156113fe576113fd611b41565b5b1461143e576040517f08c379a000000000000000000000000000000000000000000000000000000000815260040161143590612882565b60405180910390fd5b60011515600460008373ffffffffffffffffffffffffffffffffffffffff1673ffffffffffffffffffffffffffffffffffffffff16815260200190815260200160002060000160009054906101000a900460ff161515036114d4576040517f08c379a00000000000000000000000000000000000000000000000000000000081526004016114cb906128ee565b60405180910390fd5b6001600460008373ffffffffffffffffffffffffffffffffffffffff1673ffffffffffffffffffffffffffffffffffffffff16815260200190815260200160002060000160006101000a81548160ff0219169083151502179055507fb6be2187d059cc2a55fe29e0e503b566e1e0f8c8780096e185429350acffd3dd8160405161155e9190611b26565b60405180910390a150565b600080600380549050905060005b818110156115c6576003818154811061159357611592611fad565b5b90600052602060002090600302016002015484146115b6578060010190506115c1565b6000925050506115cd565b611577565b5060019150505b919050565b6115da611714565b73ffffffffffffffffffffffffffffffffffffffff166115f8610c20565b73ffffffffffffffffffffffffffffffffffffffff161461164e576040517f08c379a00000000000000000000000000000000000000000000000000000000081526004016116459061295a565b60405180910390fd5b565b60008060009054906101000a900473ffffffffffffffffffffffffffffffffffffffff169050816000806101000a81548173ffffffffffffffffffffffffffffffffffffffff021916908373ffffffffffffffffffffffffffffffffffffffff1602179055508173ffffffffffffffffffffffffffffffffffffffff168173ffffffffffffffffffffffffffffffffffffffff167f8be0079c531659141344cd1fd0a4f28419497f9722a3daafe3b4186f6b6457e060405160405180910390a35050565b600033905090565b60405180606001604052806060815260200160008152602001600080191681525090565b82805461174c90612597565b90600052602060002090601f01602090048101928261176e57600085556117b5565b82601f1061178757805160ff19168380011785556117b5565b828001600101855582156117b5579182015b828111156117b4578251825591602001919060010190611799565b5b5090506117c291906117eb565b5090565b6040518060600160405280600015158152602001600015158152602001600081525090565b5b808211156118045760008160009055506001016117ec565b5090565b6000604051905090565b600080fd5b600080fd5b6000819050919050565b61182f8161181c565b811461183a57600080fd5b50565b60008135905061184c81611826565b92915050565b60006020828403121561186857611867611812565b5b60006118768482850161183d565b91505092915050565b600080fd5b600080fd5b600080fd5b60008083601f8401126118a4576118a361187f565b5b8235905067ffffffffffffffff8111156118c1576118c0611884565b5b6020830191508360018202830111156118dd576118dc611889565b5b9250929050565b600080602083850312156118fb576118fa611812565b5b600083013567ffffffffffffffff81111561191957611918611817565b5b6119258582860161188e565b92509250509250929050565b61193a8161181c565b82525050565b60006020820190506119556000830184611931565b92915050565b600080fd5b6000601f19601f8301169050919050565b7f4e487b7100000000000000000000000000000000000000000000000000000000600052604160045260246000fd5b6119a982611960565b810181811067ffffffffffffffff821117156119c8576119c7611971565b5b80604052505050565b60006119db611808565b90506119e782826119a0565b919050565b600067ffffffffffffffff821115611a0757611a06611971565b5b611a1082611960565b9050602081019050919050565b82818337600083830152505050565b6000611a3f611a3a846119ec565b6119d1565b905082815260208101848484011115611a5b57611a5a61195b565b5b611a66848285611a1d565b509392505050565b600082601f830112611a8357611a8261187f565b5b8135611a93848260208601611a2c565b91505092915050565b600060208284031215611ab257611ab1611812565b5b600082013567ffffffffffffffff811115611ad057611acf611817565b5b611adc84828501611a6e565b91505092915050565b600073ffffffffffffffffffffffffffffffffffffffff82169050919050565b6000611b1082611ae5565b9050919050565b611b2081611b05565b82525050565b6000602082019050611b3b6000830184611b17565b92915050565b7f4e487b7100000000000000000000000000000000000000000000000000000000600052602160045260246000fd5b60068110611b8157611b80611b41565b5b50565b6000819050611b9282611b70565b919050565b6000611ba282611b84565b9050919050565b611bb281611b97565b82525050565b6000602082019050611bcd6000830184611ba9565b92915050565b600081519050919050565b600082825260208201905092915050565b60005b83811015611c0d578082015181840152602081019050611bf2565b83811115611c1c576000848401525b50505050565b6000611c2d82611bd3565b611c378185611bde565b9350611c47818560208601611bef565b611c5081611960565b840191505092915050565b611c648161181c565b82525050565b6000819050919050565b611c7d81611c6a565b82525050565b60006060830160008301518482036000860152611ca08282611c22565b9150506020830151611cb56020860182611c5b565b506040830151611cc86040860182611c74565b508091505092915050565b60006020820190508181036000830152611ced8184611c83565b905092915050565b611cfe81611b05565b8114611d0957600080fd5b50565b600081359050611d1b81611cf5565b92915050565b600060208284031215611d3757611d36611812565b5b6000611d4584828501611d0c565b91505092915050565b60008115159050919050565b611d6381611d4e565b82525050565b606082016000820151611d7f6000850182611d5a565b506020820151611d926020850182611d5a565b506040820151611da56040850182611c5b565b50505050565b6000606082019050611dc06000830184611d69565b92915050565b600082825260208201905092915050565b7f596f75277265206e6f74206120766f7465720000000000000000000000000000600082015250565b6000611e0d601283611dc6565b9150611e1882611dd7565b602082019050919050565b60006020820190508181036000830152611e3c81611e00565b9050919050565b7f566f74696e672073657373696f6e20686176656e74207374617274656420796560008201527f7400000000000000000000000000000000000000000000000000000000000000602082015250565b6000611e9f602183611dc6565b9150611eaa82611e43565b604082019050919050565b60006020820190508181036000830152611ece81611e92565b9050919050565b7f596f75206861766520616c726561647920766f74656400000000000000000000600082015250565b6000611f0b601683611dc6565b9150611f1682611ed5565b602082019050919050565b60006020820190508181036000830152611f3a81611efe565b9050919050565b7f50726f706f73616c206e6f7420666f756e640000000000000000000000000000600082015250565b6000611f77601283611dc6565b9150611f8282611f41565b602082019050919050565b60006020820190508181036000830152611fa681611f6a565b9050919050565b7f4e487b7100000000000000000000000000000000000000000000000000000000600052603260045260246000fd5b7f4e487b7100000000000000000000000000000000000000000000000000000000600052601160045260246000fd5b60006120168261181c565b91507fffffffffffffffffffffffffffffffffffffffffffffffffffffffffffffffff820361204857612047611fdc565b5b600182019050919050565b60006040820190506120686000830185611b17565b6120756020830184611931565b9392505050565b7f50726f706f73616c7320617265206e6f7420616c6c6f77656420796574000000600082015250565b60006120b2601d83611dc6565b91506120bd8261207c565b602082019050919050565b600060208201905081810360008301526120e1816120a5565b9050919050565b50565b60006120f8600083611dc6565b9150612103826120e8565b600082019050919050565b60006020820190508181036000830152612127816120eb565b9050919050565b600061213a8385611dc6565b9350612147838584611a1d565b61215083611960565b840190509392505050565b6000602082019050818103600083015261217681848661212e565b90509392505050565b7f566f7573206e6520706f7576657a20706173206e65207269656e2070726f706f60008201527f7365720000000000000000000000000000000000000000000000000000000000602082015250565b60006121db602383611dc6565b91506121e68261217f565b604082019050919050565b6000602082019050818103600083015261220a816121ce565b9050919050565b7f4e6f6d627265204d61782e2064652070726f706f736974696f6e73206174746560008201527f696e746573000000000000000000000000000000000000000000000000000000602082015250565b600061226d602583611dc6565b915061227882612211565b604082019050919050565b6000602082019050818103600083015261229c81612260565b9050919050565b7f5461696c6c65206d61782e206427756e652070726f706f736974696f6e000000600082015250565b60006122d9601d83611dc6565b91506122e4826122a3565b602082019050919050565b60006020820190508181036000830152612308816122cc565b9050919050565b7f5461696c6c65206d696e2e206427756e652070726f706f736974696f6e000000600082015250565b6000612345601d83611dc6565b91506123508261230f565b602082019050919050565b6000602082019050818103600083015261237481612338565b9050919050565b7f566f7472652070726f706f736974696f6e206e6520646f69742070617320c3aa60008201527f747265206e756c00000000000000000000000000000000000000000000000000602082015250565b60006123d7602783611dc6565b91506123e28261237b565b604082019050919050565b60006020820190508181036000830152612406816123ca565b9050919050565b7f43657474652070726f706f736974696f6e206578697374652064c3a96ac3a021600082015250565b6000612443602083611dc6565b915061244e8261240d565b602082019050919050565b6000602082019050818103600083015261247281612436565b9050919050565b60006124848261181c565b915061248f8361181c565b9250828210156124a2576124a1611fdc565b5b828203905092915050565b7f43757272656e7420737461747573206973206e6f7420766f74696e672073657360008201527f73696f6e20656e64656400000000000000000000000000000000000000000000602082015250565b6000612509602a83611dc6565b9150612514826124ad565b604082019050919050565b60006020820190508181036000830152612538816124fc565b9050919050565b60006040820190506125546000830185611ba9565b6125616020830184611ba9565b9392505050565b7f4e487b7100000000000000000000000000000000000000000000000000000000600052602260045260246000fd5b600060028204905060018216806125af57607f821691505b6020821081036125c2576125c1612568565b5b50919050565b7f5265676973746572696e672070726f706f73616c732063616e7420626520737460008201527f6172746564206e6f770000000000000000000000000000000000000000000000602082015250565b6000612624602983611dc6565b915061262f826125c8565b604082019050919050565b6000602082019050818103600083015261265381612617565b9050919050565b7f5265676973746572696e672070726f706f73616c7320686176656e742073746160008201527f7274656420796574000000000000000000000000000000000000000000000000602082015250565b60006126b6602883611dc6565b91506126c18261265a565b604082019050919050565b600060208201905081810360008301526126e5816126a9565b9050919050565b7f5265676973746572696e672070726f706f73616c73207068617365206973206e60008201527f6f742066696e6973686564000000000000000000000000000000000000000000602082015250565b6000612748602b83611dc6565b9150612753826126ec565b604082019050919050565b600060208201905081810360008301526127778161273b565b9050919050565b7f4f776e61626c653a206e6577206f776e657220697320746865207a65726f206160008201527f6464726573730000000000000000000000000000000000000000000000000000602082015250565b60006127da602683611dc6565b91506127e58261277e565b604082019050919050565b60006020820190508181036000830152612809816127cd565b9050919050565b7f566f7465727320726567697374726174696f6e206973206e6f74206f70656e2060008201527f7965740000000000000000000000000000000000000000000000000000000000602082015250565b600061286c602383611dc6565b915061287782612810565b604082019050919050565b6000602082019050818103600083015261289b8161285f565b9050919050565b7f416c726561647920726567697374657265640000000000000000000000000000600082015250565b60006128d8601283611dc6565b91506128e3826128a2565b602082019050919050565b60006020820190508181036000830152612907816128cb565b9050919050565b7f4f776e61626c653a2063616c6c6572206973206e6f7420746865206f776e6572600082015250565b6000612944602083611dc6565b915061294f8261290e565b602082019050919050565b6000602082019050818103600083015261297381612937565b905091905056fea2646970667358221220dc0b9c095adfc1018688a6872e7cdce3bfd19dedf2d08169695e89baec6bfacc64736f6c634300080d0033",
  "linkReferences": {},
  "deployedLinkReferences": {},
  "address": "0x5FbDB2315678afecb367f032d93F642f64180aa3"
}